:03000000021A1CC5
:0C1A1C00787FE4F6D8FD758121021A6382
:05205900252E33660096
:101E9F004202210000420223000042024900004298
:101EAF00013D000142013F00014201410001420199
:081EBF004F0001420151000136
:101E4400122027121FAC121E141216BF900248EF64
:101E5400F0121CE1900153E0B4010512183B800913
:0E1E6400900153E070031210F1121FE280DBB8
:101F3F00E4FDFCE4FBFAC3EB9FEE6480F8EA6480F7
:101F4F009850070BBB00010A80EC0DBD00010CED92
:051F5F0064704C70DE0F
:011F6400225A
:101FAC009001537401F0E4900155F090015704F046
:0B1FBC00E4900156F090015804F02260
:101CE100900153E0FF7011900248E0900154B43D1F
:101CF100047401F022EFF022900153E0640170417D
:101D010090013DE07002A3E06017E490013DF0A373
:101D1100F0122063E4900223F0A3F0900249F0A3B3
:101D2100F07F0F121EC8900248E0B46D0E90013D85
:101D3100E4F0A304F0E4900154F022900153E0A3F5
:011D4100F0B1
:011D4200227E
:0810F100900157E06401704317
:1010F9007F0C121EC890013FE07002A3E0601E122F
:1011090020637F481200037F52121EF17F55121E81
:10111900F17F4E121EF1E490013FF0A3F0121C7C06
:10112900900248E0B42F0AE4900158F090013F8002
:011139006E47
:08113A008071900157E0707212
:10114200900141E07002A3E0602A7F0C121EC87F6A
:10115200481200037F50121EF17F41121EF17F558B
:10116200121EF17F53121EF17F45121EF1E490010F
:1011720041F0A3F0900248E0FFB42F0C90015874A4
:1011820001F0900141E4801EEFB42A0C90015874E2
:1011920003F0900141E4800EEFB42D0F90015874DA
:1011A20002F0900141E4F0A304F022900157E0A381
:0111B200F04C
:1011B30022900157E0B40314E4900246F0A3F090A8
:1011C3000245F0121C7CE4900158F022900157E094
:0711D300640260030214C571
:1011DA00900151E07002A3E070030212B012206382
:1011EA00900246E0FD75F00A84FF7E00900143EE0E
:1011FA00F0A3EFF0ED75F00A84ADF0A3E4F0A3EDEF
:10120A00F0900247E0FD75F00A84FB900147E4F094
:10121A00A3EBF0ED75F00A84ADF0A3E4F0A3EDF0D2
:10122A00900245E0FD75F00A84FB90014BE4F0A3BF
:10123A00EBF0ED75F00A84ADF0A3E4F0A3EDF0A3B2
:10124A00E4F0A304F0E4A3F0A3F0C007900145E0A2
:10125A00FCA3E0FDA3E0FAA3E0FBA3E0FFA3E09078
:10126A000006CFF0A3EFF090014BE0FFA3E090005F
:10127A0008CFF0A3EFF090014DE0FFA3E090000A41
:10128A00CFF0A3EFF0D007121AA87F481200037F0D
:10129A0053121EF17F45121EF17F54121EF17F0F69
:1012AA00121EC812205E900248E0B4282C90014F0A
:1012BA00E0FEA3E0FF7C007D02120560ED4C6004B5
:1012CA007F0280027F017E00121D96900150E02469
:1012DA00FFF090014FE034FFF0900248E0B4292D6E
:1012EA0090014FE0FEA3E0FF7C007D02120560ED55
:1012FA004C70057F02FE80047F017E00121DD5908E
:10130A000150E004F0700690014FE004F0900248AA
:10131A00E0FFC3648094B05003021470D3EF64807A
:10132A0094B9400302147090014FE0FEA3E0FFEE6F
:10133A0060030213D7EF24FE602814603A14604C4D
:10134A0014605E146070240560030213D79002488B
:10135A00E0FF3395E0FEEF24D0FFEE34FF90014327
:10136A008067900248E0FF3395E0FEEF24D0FFEE5D
:10137A0034FF9001458052900248E0FF3395E0FE29
:10138A00EF24D0FFEE34FF900147803D900248E001
:10139A00FF3395E0FEEF24D0FFEE34FF9001498041
:1013AA0028900248E0FF3395E0FEEF24D0FFEE34A8
:1013BA00FF90014B8013900248E0FF3395E0FEEF67
:1013CA0024D0FFEE34FF90014DF0A3EFF0900145D9
:1013DA00E0FCA3E0FDA3E0FAA3E0FBA3E0FFA3E0A7
:1013EA00900006CFF0A3EFF090014BE0FFA3E0904E
:1013FA000008CFF0A3EFF090014DE0FFA3E09000CA
:10140A000ACFF0A3EFF0900143E0FEA3E0FF121A27
:10141A00A812205E7F0A7E00121F3F90014FE0FE55
:10142A00A3E0FFD39402EE648094805009EF24FF76
:10143A00FFEE34FF802C90014FE0FEA3E0FFC3943F
:10144A0003EE64809480400DD3EF9404EE6480949C
:10145A00805002800E900150E02401FF90014FE07D
:10146A003400FE121DD5900248E0642D70459001AB
:10147A0043A3E075F00AA4FFA3A3E02F900246F06D
:10148A00900147A3E075F00AA4FFA3A3E02F9002FE
:10149A0047F090014BA3E075F00AA4FFA3A3E02F45
:1014AA00900245F0900151E4F0A304F0E490015851
:0B14BA00F08006900157E0A3F0C2B7DD
:0114C5002204
:10183B00900155E060030218CF900248E0FF604230
:10184B00643D603EEF64646039900223E475F001FF
:10185B00120596FC74FD25F0F58274013CF583EFBF
:10186B00F0900223E0FEA3E024FDF58274013EF527
:10187B0083E4F07B017A0179FD7D20FC121BA4022D
:10188B00197A900248E0B46429900224E024FFF016
:10189B00900223E034FFF0E0FEA3E024FDF5827418
:1018AB00013EF583E4F07B017A0179FD7D20FC029A
:1018BB001BA4900248E0643D60030219809001561E
:1018CB007402F022900155E0640260030219577B09
:1018DB00017A01797B1220457B017A01795912201B
:1018EB004F9000037401F0A37401F0A3747BF0A379
:1018FB007401F0A37401F0A37459F07B017A0179A0
:10190B00FD120C8990021D1206C090000374FFF0AB
:10191B00A37420F0A37459F090021DE0FCA3E0FD2A
:10192B00A3E0FEA3E0FF9000061206C07B017A0243
:10193B00792512086B1220637B017A0279257D07CA
:10194B007C00121BA49001567403F022900155E009
:10195B00B40322900248E0B43D15122063E49002D8
:10196B0023F0A3F0900249F0A3F0900156F02290DF
:06197B000155E0A3F0227B
:101FE200900154E0900153F0900156E0900155F0B9
:091FF200900158E0900157F02223
:03000B00021B33A2
:101B3300C0E0C083C082C0D0758C15758AA0D28CDA
:101B4300900222E004F07006900221E004F0C390BA
:101B53000222E0940F900221E0648094804039E4F3
:101B6300F0A3F0900153E0702F900157E0640170EF
:101B730027900245E004F0E0943C401CE4F090021E
:101B830047E004F0E0943C400FE4F0900246E004A8
:101B9300F0E094184002E4F0D0D0D082D083D0E0BB
:011BA300320F
:101EC80090001DEFF0122014EF64014E60F7C290ED
:101ED800C291C292000090001DE0F5A00000000031
:091EE800D29200000000C2922217
:101EF10090001DEFF0122014EF64014E60F7D290B4
:101F0100C291C29290001DE0F5A000000000D292A3
:071F110000000000C2922253
:101E1400122014EF4E70F97F38121EC8122014EFEE
:101E24004E70F97F0F121EC8122014EF4E70F97F06
:101E340006121EC8122014EF4E70F97F01021EC84C
:0D203700EFD3940040077E0ADEFE1F80F309
:012044002279
:10201400C290D291D29200000000A2A7E4FE33FF46
:02202400C29266
:012026002297
:07000300EF4480FF021EC85C
:05205E007F02021EC814
:052063007F01021EC810
:081D9600900000EEF0A3EFF055
:101D9E00A3E4F0A304F0900000E0FEA3E0FFD390D4
:101DAE000003E09FEE6480F8900002E0648098509B
:101DBE00157F10121EC8900003E004F070D890003A
:061DCE0002E004F080D0E9
:011DD40022EC
:081DD500900000EEF0A3EFF016
:101DDD00A3E4F0A304F0900000E0FEA3E0FFD39095
:101DED000003E09FEE6480F8900002E0648098505C
:101DFD00157F14121EC8900003E004F070D89000F7
:061E0D0002E004F080D0A9
:011E130022AC
:101BA40090000FEBF0A3EAF0A3E9F0D3ED9421EC5D
:061BB4006480948050598A
:101BBA00E4A3F0A3F0FF12000390000FE0FBA3E000
:101BCA00FAA3E0F9A3E0FEA3E0FFF5828E831204F4
:101BDA00FF6036EF64104E70057F401200039000DC
:101BEA000FE0FBA3E0FAA3E0F9A3E0FEA3E0F5828D
:101BFA008E831204FFFF121EF1900013E004F070AE
:091C0A00B8900012E004F080B073
:011C130022AE
:1016BF00E4FDFC53900F439008AF80EF540F24FECE
:1016CF00601424FE601824FC601C2407701E7C002C
:1016DF007D017E3080167C007D017E31800E7C0086
:1016EF007D017E3480067C007D017E37ED64014CE8
:1016FF00700BAF80EF540FFF70F8AF0622539017A7
:10170F00439010AF80EF540F24FE601424FE601836
:10171F0024FC601C2407701E7C007D027E2E801628
:10172F007C007D027E32800E7C007D027E3580063D
:10173F007C007D027E38ED64024C700BAF80EF545D
:10174F000FFF70F8AF0622539027439020AF80EF22
:10175F00540F24FE601424FE601824FC601C240720
:10176F00701E7C007D037E3D80167C007D037E34E1
:10177F00800E7C007D037E3680067C007D037E39E3
:10178F00ED64034C700BAF80EF540FFF70F8AF0692
:10179F0022539047439040AF80EF540F24FE6014C4
:1017AF0024FE601824FC601C2407701E7C007D043E
:1017BF007E2B80167C007D047E2D800E7C007D04A8
:1017CF007E2A80067C007D047E2FED64044C700B16
:1017DF00AF80EF540FFF70F8AF06225390874390FE
:1017EF0080AF80EF540FFF24FE601424FE60182496
:1017FF00FC601C2407701E7C007D057E6480167CB7
:10180F00007D057E6D800E7C007D057E2980067C27
:10181F00007D057E28ED64054C700BAF80EF540FF3
:0B182F00FF70F8AF0622ED4C7001FFC7
:01183A00228B
:0A20450090008074FFF5F0020631F0
:0A204F0090002074FFF5F002063146
:101D430090011AEBF0A3EAF0A3E9F090011AE0FB8B
:101D5300A3E0FAA3E0F9900080E475F0011205E432
:101D6300C004C005C006C00790011AE0FBA3E0FA57
:101D7300A3E0F99000801205ACAEF07802C333CE35
:101D830033CED8F9F5828E83D007D006D005D004A0
:031D930002069CA9
:0B1E7200900003E0FBA3E0FAA3E0F9FE
:101E7D009000801205ACAEF07802C333CE33CED8CD
:101E8D00F9F5828E8312066C90008074FFF5F002D6
:021E9D0005E45A
:101FFB00900020E475F0011205E49000201205AC6E
:09200B00F58285F083ED02053E2B
:0B1F6500900006E0FBA3E0FAA3E0F907
:101F70009000201205ACF58285F0831204FFFF90DB
:091F8000002074FFF5F00205E4F5
:0B1FC700900006E0FBA3E0FAA3E0F9A5
:0F1FD2009000201205ACF58285F0831204FFFF0A
:011FE10022DD
:101F8900EF24D6601914601124FE600D24FE600E42
:101F99002407700E7E007F01227E007F02227E00D0
:031FA9007F032291
:1019810090011A1206C0900122E0B42B1F90011E93
:10199100E0FCA3E0FDA3E0FEA3E0FF90011AE0F864
:1019A100A3E0F9A3E0FAA3E0FB020015900122E015
:1019B100B42D1D90011AE0F8A3E0F9A3E0FAA3E029
:1019C100FBA3E0FCA3E0FDA3E0FEA3E0FF02001106
:1019D100900122E0B42A1F90011EE0FCA3E0FDA3C8
:1019E100E0FEA3E0FF90011AE0F8A3E0F9A3E0FA1A
:1019F100A3E0FB020106900122E0B42F1D90011A21
:101A0100E0F8A3E0F9A3E0FAA3E0FBA3E0FCA3E084
:0B1A1100FDA3E0FEA3E0FF12020F2285
:0B14C60090011AEBF0A3EAF0A3E9F09C
:1014D100E4A3F0A3F0900133F0A3F0A31206CC0033
:1014E1000000009001391206CC3F80000090011AE3
:1014F100E0FBA3E0FAA3E0F9A3E0FEA3E0F5828E0E
:10150100831204FFFF6034642E6030900133E0FCED
:10151100A3E0241FF58274013CF583EFF0900134C0
:10152100E004F07006900133E004F090011EE00445
:10153100F070BA90011DE004F080B2900133E070C8
:1015410002A3E070030215D2900134E024FFF09071
:101551000133E034FFF0900135E0F8A3E0F9A3E0B6
:10156100FAA3E0FBC000C001C002C003900133E058
:10157100FEA3E0241FF58274013EF583E0FF33955D
:10158100E0FEEF24D0FDEE34FFFCE41202B1900145
:1015910039E0F8A3E0F9A3E0FAA3E0FB120106D0D9
:1015A10003D002D001D0001200159001351206C0FF
:1015B100900139E0FCA3E0FDA3E0FEA3E0FFE4FB22
:1015C100FA792078411201069001391206C00215FC
:1015D1003C90011AE0FBA3E0FAA3E0F9A3E0FEA32B
:1015E100E0F5828E831204FF642E60030216B09030
:1015F100011EE004F0700690011DE004F090013935
:101601001206CC3DCCCCCD90011AE0FBA3E0FAA3AD
:10161100E0F9A3E0FEA3E0F5828E831204FF7003DC
:101621000216B0900135E0F8A3E0F9A3E0FAA3E0D7
:10163100FBC000C001C002C00390011AE0FBA3E09F
:10164100FAA3E0F9A3A3E0F5828E831204FFFF332E
:1016510095E0FEEF24D0FDEE34FFFC1202B19001C3
:1016610039E0F8A3E0F9A3E0FAA3E0FB120106D008
:1016710003D002D001D0001200159001351206C02E
:10168100900139E0FCA3E0FDA3E0FEA3E0FFE4FB51
:10169100FA7920784112020F9001391206C09001A7
:1016A1001EE004F0700690011DE004F0021608909F
:0D16B1000135E0FCA3E0FDA3E0FEA3E0FF97
:0116BE002209
:0B0C8900900000EBF0A3EAF0A3E9F0FC
:100C9400E4900009F0A3F0A3F0A3F0A3F0A3F0A361
:100CA400F0A3F09000F5F0A3F0A3F0A3F0900000FF
:100CB400E0FBA3E0FAA3E0F9900009E0FEA3E0F56D
:100CC400828E831204FFFF7003020F80C36480943A
:100CD400B04008D3EF648094B94008EF642E6003F9
:100CE400020DF8E490000DF0A3F0900009E0FFA3DA
:100CF400E090000FCFF0A3EFF0900000E0FBA3E042
:100D0400FAA3E0F9900009E0FEA3E0F5828E8312D5
:100D140004FFFFC3648094B04008D3EF648094B9A7
:100D24004004EFB42E1E90000AE004F07006900018
:100D340009E004F090000EE004F070BD90000DE0B6
:100D440004F080B5900000E0FBA3E0FAA3E0F99082
:100D5400000FE0FEA3E0FFE92FF9EA3EFA90011D3F
:100D6400EBF0A3EAF0A3E9F090000DE0FFA3E0901C
:100D74000120CFF0A3EFF07B017A0079F9121C1463
:100D840090000DE0FEA3E024F9F58274003EF583A3
:100D9400E4F07B017A0079F91214C690001112066E
:100DA400C0900011E0FCA3E0FDA3E0FEA3E0FF90EF
:100DB40000F5E0FAA3E0FB90001575F0071206FDBC
:100DC400EA75F007A42583F5831206C090001A750E
:100DD400F007EB1206FDEA75F007A42583F583E41A
:100DE400F0A3F09000F6E004F070069000F5E00443
:100DF400F0020CB1900006E0FBA3E0FAA3E0F99046
:100E040000201205ACFFAEF0BEFF2CBFFF29C003CB
:100E1400C002C001900000E0FBA3E0FAA3E0F99057
:100E24000009E0FEA3E0F5828E831204FFFDD001E9
:100E3400D002D003020F6C900000E0FBA3E0FAA301
:100E4400E0F9900009E0FEA3E0F5828E831204FF2E
:100E5400FFB4280FFD900006E0FBA3E0FAA3E0F93D
:100E6400020F6CEF6429705A121FC7EF6428604C9C
:100E7400121F6590010DEFF09000F5E0FCA3E0FD7A
:100E840090001975F0071206FDEC75F007A4258390
:100E9400F583EFF090001A75F007ED1206FDEC757E
:100EA400F007A42583F583E4F0A304F09000F6E0B2
:0A0EB40004F070B49000F5E004F0C3
:100EBE0080AC121F65020F6F121FC7121F89AC067E
:100ECE00AD07900000E0FBA3E0FAA3E0F990000963
:100EDE00E0FEA3E0F5828E831204FFFF121F89D37A
:0C0EEE00EF9DEC6480F8EE648098504D9D
:100EFA00121F6590010DEFF09000F5E0FCA3E0FDF4
:100F0A0090001975F0071206FDEC75F007A4258309
:100F1A00F583EFF090001A75F007ED1206FDEC75F7
:100F2A00F007A42583F583E4F0A304F09000F6E02B
:0A0F3A0004F070069000F5E004F0EA
:100F4400020EC6900000E0FBA3E0FAA3E0F99000D3
:100F540009E0FEA3E0F5828E831204FFFD900006F3
:100F6400E0FBA3E0FAA3E0F9121FFB90000AE004FF
:100F7400F07006900009E004F0020CB1900006E065
:100F8400FBA3E0FAA3E0F99000201205ACF470038F
:050F9400E5F0F4604CE3
:100F9900121F7090010DEFF09000F5E0FCA3E0FD49
:100FA90090001975F0071206FDEC75F007A425836A
:100FB900F583EFF090001A75F007ED1206FDEC7558
:100FC900F007A42583F583E4F0A304F09000F6E08C
:0A0FD90004F070A39000F5E004F0AE
:100FE300809BE49000F7F0A3F09000F5E0FEA3E00F
:100FF300FFA3E0FCA3E0FDC39FEE6480F8EC6480F4
:101003009840030210E390001A75F007ED1206FDF5
:10101300EC75F007A42583F583E0FEA3E064014E9D
:051023009000F7707B56
:10102800E0FEA3E090001975F0071206FDEE75F0DA
:1010380007A42583F583E090010DF0121E7290013C
:101048000E1206C0121E729001121206C0900112F2
:10105800E0FCA3E0FDA3E0FEA3E0FF90011E120662
:10106800C090010DE0900122F090010EE0FCA3E099
:10107800FDA3E0FEA3E0FF1219819001161206C03D
:10108800900003E0FBA3E0FAA3E0F9900116E0FC6E
:09109800A3E0FDA3E0FEA3E0FFCC
:1010A100802CE0FEA3E090001575F0071206FDEE1E
:1010B10075F007A42583F583E0FCA3E0FDA3E0FE22
:1010C100A3E0FF900003E0FBA3E0FAA3E0F9121D07
:1010D100439000F8E004F070069000F7E004F0029D
:1010E1000FEC900003E0FBA3E0FAA3E0F9021E7D00
:10202700758901758C15758AA0D2AFD2A9D28C2279
:101C7C00900246E0FD75F00A842430900000F0EDEF
:101C8C0075F00A84E5F02430A3F0A3743AF09002C6
:101C9C0047E0FD75F00A842430900003F0ED75F0F8
:101CAC000A84E5F02430A3F0A3743AF0900245E0E6
:101CBC00FD75F00A842430900006F0ED75F00A846E
:101CCC00E5F02430A3F0E4A3F07B017A0079007DE9
:051CDC000FFC021BA437
:101AA800E490000CF0A3F0EF2430A3F0ED2430A371
:101AB800F0A3743AF0EB2430A3F0900006A3E024DE
:101AC80030900012F0A3743AF0900008A3E024309C
:101AD800900014F090000AA3E02430900015F0E480
:101AE800A3F0FF12000390000CE0FEA3E0FF240E19
:101AF800F58274003EF583E06030EF64104E7005A7
:101B08007F4012000390000CE0FEA3E0240EF58253
:101B180074003EF583E0FF121EF190000DE004F022
:0A1B280070C490000CE004F080BCD3
:011B32002290
:10000E0002031FE86480F8E933E83360110460F0FE
:10001E00ED33EC337009E8FCE9FDEAFEEBFF220458
:10002E0060DED3EB9FEA9EE99DE8C2E78CF0C2F753
:10003E0095F0400CE8CCF8E9CDF9EACEFAEBCFFB1F
:10004E001202EA85D0F05804700320D5B3E804708C
:10005E00075002B2D502032992D5EC0460F7E4CC26
:10006E00C0E0C398F8603B94186008400DD0E0FBE8
:10007E00020301E4FBFAC9FC8028E830E406E4C977
:10008E00FBE4CAFCE830E305E4C9CACBFCE854073C
:10009E006010F8C3E913F9EA13FAEB13FBEC13FC47
:1000AE00D8F130F52FC3E49CFCEF9BFFEE9AFEEDEA
:1000BE0099FDD0E0FBEF4E4D4C701222DB03020394
:1000CE0026EC2CFCEF33FFEE33FEED33FDED30E787
:1000DE00EB020301EF2BFFEE3AFEED39FDD0E0FB14
:1000EE0050130BBB0003020329ED13FDEE13FEEFBD
:0800FE0013FFEC13FC020301E7
:10010600EC4D6011E8497017ED33EC3304600DE4F3
:10011600FCFFFEFD22E933E8330470F802031F12E8
:1001260002EA58046009E4CC2481500628500902EA
:100136000329284003020326C0E0EB4A7044B98035
:1001460006D0E0FB020315EF4E701CBD8008EBFFE6
:10015600EAFEE9FD80EBE98DF0A4FEE5F00201EF91
:10016600E9CDF9EAFEEBFFEF89F0A4FCE5F0CE89D4
:10017600F0A42EFFE435F0CD89F0A42DFEE435F091
:100186008067EF4E7005BD80D780C3EF8BF0A4ACBF
:10019600F0EE8BF0A42CFCE435F0F8EF8AF0A42CFA
:1001A600E5F038FCE433CB8DF0A42CFCE5F03BF80D
:1001B600EE8AF0A42CFCE5F038F8E433CF89F0A4FD
:1001C6002CFCE5F038CF3400CE89F0A42FFFE5F003
:1001D6003EFEE433C98DF0A42EFEE5F039CD8AF05B
:1001E600A42FFFE5F03EFEE43DFD33D0E0FB5007D3
:1001F6000BBB000F020329EC2CFCEF33FFEE33FEA2
:06020600ED33FD020301CF
:10020C00020329EC5D046005E85904700302031F26
:10021C001202EA580460F6EC4860F2EC7004FDFE41
:10022C00FF22C860DB2481C85009C39860025006C5
:10023C000203269850CAF582E9294B4A7005AB8215
:10024C0002031575F0007C1A7880C3EF9BEE9AEDD3
:10025C0099400DC3EF9BFFEE9AFEED99FDE842F03D
:10026C00DC23ACF0D0E0FFD0E0FED0E0FDAB822090
:10027C00E7101BEB60BAEC2CFCEF33FFEE33FEED1A
:10028C0033FD020301E803F830E705C0F075F00018
:10029C00EF2FFFEE33FEED33FD40B830E7C280AAFE
:1002AC0075F020800E75F010800575F0087D007ECD
:1002BC00007F003392D530D50312065EEC3340102C
:1002CC00EF33FFEE33FEED33FDEC33FCD5F0ED22D6
:0E02DC00E5F0247EA2D513CC92E7CDCEFF2212
:10080600E5082403F582E43400F583E00508229028
:100816000000300703900003E475F0011207090297
:1008260004E62000E97F2ED2008018EF540F2490B2
:10083600D43440D4FF30040BEF24BFB41A00500365
:100846002461FFE50960021509050CE50C70020537
:100856000B30070E900000E475F001120709EF0255
:10086600052C021F187403D2078003E4C207F5089B
:10087600900000120720E4F509F50BF50CE5096078
:10088600077F2012084980F5750AFFC201C200C21F
:1008960002C203C205C206C208120815FF700D3057
:1008A60007057F0012085AAF0CAE0B22B4255FC2B3
:1008B600D5C204120815FF24D0B40A00501A75F0E8
:1008C6000A780930D50508B6FF0106C6A426F62023
:1008D600D5047002D20380D924CFB41A00EF500495
:1008E600C2E5D204020B4CD20180C6D20080C0D22F
:1008F6000280BCD2D580BAD20580B47F20120849C6
:100906002002077401B5090040F1120806FF12081B
:1009160049020883D208D2068095120806FB1208FF
:1009260006FA120806F94A4B7006794A7A0C7BFFDA
:1009360020022EE509602A7E008E8275830012044D
:10094600FF60060EEE650A70F0C2D5EBC0E0EAC0A5
:10095600E0E9C0E0EE120BADD0E0F9D0E0FAD0E06D
:10096600FB1204E6FF60AAEBC0E0EAC0E0E9C0E0E3
:10097600120849D0E02401F9D0E03400FAD0E0FBB7
:10098600E50A0460DCD50AD98087D20280A2120B60
:100996008F60F7E50A700104120334A90A600DE5B9
:1009A6000A600914F50A120C37EF60F3EA30E70221
:1009B600F404C3995079EAF4250A0430E701E40403
:1009C600F50A800D120B8F60C1EA050A250A12038B
:1009D60034EA90002FF030E701E4250A04D50A0432
:1009E60020050114120BADE4C0E0120C3790002F65
:1009F600E0601320E70714F0120831802204F0D0DB
:100A0600E014C0E07F00120831E50A6007120828EA
:100A1600150A800B300503120828D0E0020883D09F
:100A2600E00480C4120B8F609EE50A041203349022
:100A3600002FEAF0E50A2005026001042404120BE7
:010A4600AD02
:100A470074FF04C0E0120C37120831E50A200502D2
:100A57006003120828D0E0B50AE87F4512083B90EA
:100A6700002FE07F2B30E7047F2DF404C0E012084D
:100A770049D0E075F00A84C0F0120832D0E01208BD
:100A870032020883791080027908C206C2088008FA
:100A9700D2D5790A8004790AC2D5E50A047002F52D
:100AA7000AE4FAFDFEFF120806FC7B082001131278
:100AB7000806FD7B1030000A120806FE120806FF22
:100AC7007B20EC3382D592D55013C3E43000069FC8
:100AD700FFE49EFEE42001039DFDE49CFCE4CBF8CB
:100AE700C201EC700CCFCECDCCE824F8F870F380BF
:100AF70017C3EF33FFEE33FEED33FDEC33FCEB337F
:100B0700FB994002FB0FD8E9EB300105F8D0E0C4B0
:100B170048B201C0E00AEC4D4E4F78207B0070C20E
:100B2700EAB50A0040BCC0E0120BAFD0F0D0E0201D
:100B37000104C4C0E0C4B201C0F0120832D0F0D53D
:100B4700F0EB0208831207290920530A8B5808F192
:100B57004C08ED420A8F4F0A97440A974909064302
:100B67000A9D5509CA460A2A450994470C6A50083E
:100B7700F52D08F92E091C2B08FD23091A200C5303
:100B87002A08B54800000914E50AB4FF03750A06E8
:100B9700120806FC120806FD120806FE120806FFD8
:100BA700900028020371790AA2D5200314300509A1
:100BB700B910020404B9080104A2D52006025001A5
:100BC700042002689202B509005034C0E07F20304B
:100BD70003197F30A20272067205500F120C06C26B
:100BE70002C206C205C2087F30800F300503E9C084
:100BF700E0120849300503D0E0F9D0E0B509CC3060
:100C070005177F30B9100C1208497F583004077F49
:100C1700788003B908031208493002057F2D0208BE
:100C2700497F202008F87F2B2006F322920280CFED
:100C37007F00B40700500B2428F582E43400F583C5
:100C4700E0FF22286E756C6C2900D201120806306D
:100C570001F8C201780930D50108F60208B52D5010
:100C67004349581208062403B405004001E4900CD8
:100C7700659312083A743A12083AD20375090402C6
:020C87000A8BD6
:1002EA00E9D2E7C933E833F892D5EDD2E7CD33EC5A
:0702FA0033FC5002B2D522D3
:10030100EC30E7100FBF000C0EBE00080DBD00045D
:100311000BEB6014A2D5EB13FCED92E7FD2274FF09
:10032100FCFDFEFF22E480F8A2D574FF13FC7D8062
:03033100E480EF76
:10033400F920E73624F950037907E4F42402FBE5B5
:1003440082158270021583DBF6E024FB501BE96002
:1003540014E4F0E582158270021583E004F0B40A17
:0D03640008E4F0D9EE7401F00A22C2D5229F
:10037100ED33EC3392D5FA602AB4FF33EDC2E77B5B
:10038100FF60067A037996E4227A03799F20D504E7
:100391007A03799A224E614E002B494E46002D492F
:1003A1004E4600E47A08F0A3DAFC7B00740722C011
:1003B10083C082ECC0E0EDC0E0EEC0E0EFC0E0EA57
:1003C10075F010A4CAABF075F04DA42BFBE435F029
:1003D100FCEA2410FAEB34C5FBEC34D9FCEDC2E79E
:1003E100FF75F056A4F42411C5F0F434C58FF0A4C0
:1003F1002AE5F03BE43CF020E7141204A6D0E0FF2C
:10040100D0E0FED0E0FDD0E0FC12020F8014F40435
:100411001204A6D0E0FFD0E0FED0E0FDD0E0FC1257
:100421000106D082D083E0FAEDD2E7CD33EC33245C
:1004310082FBE4C3CF33CFCE33CECD33CD33DBF329
:100441007B0775F00A846004F0A31B0AE5F0F0A3B2
:100451008FF0740AA4FFACF08EF0740AA42CFEACE9
:10046100F050010C8DF0740AA42CFDE435F0F0A3DA
:05047100DBDE74072230
:100476003F8000004120000042C80000447A00008E
:10048600461C400047C35000497424004B18968010
:100496004CBEBC205A0E1BCA6753C21C749DC5AE07
:1004A600FB60065407601C23231204D4EB54386007
:1004B600091204C01204CF120106ECF8EDF9EEFAA7
:1004C600EFCB22EB1204CF80F1543803241C9004A6
:1004D60076FE93FC0EEE93FD0EEE930ECE93FF2268
:101A2800021E44E493A3F8E493A34003F68001F272
:101A380008DFF48029E493A3F85407240CC8C333BF
:101A4800C4540F4420C8834004F456800146F6DF8E
:101A5800E4800B0102040810204080901E9FE47E61
:101A6800019360BCA3FF543F30E509541FFEE49383
:101A7800A360010ECF54C025E060A840B8E493A34A
:101A8800FAE493A3F8E493A3C8C582C8CAC583CA75
:101A9800F0A3C8C582C8CAC583CADFE9DEE780BE2D
:011EC700001A
:1004E600BB010689828A83E0225002E722BBFE0214
:0904F600E32289828A83E4932247
:1004FF00BB010CE58229F582E5833AF583E02250B2
:10050F0006E92582F8E622BBFE06E92582F8E222FB
:0D051F00E58229F582E5833AF583E4932215
:10052C00BB010689828A83F0225002F722BBFE01AE
:02053C00F322A8
:10053E00F8BB010DE58229F582E5833AF583E8F0F3
:10054E00225006E92582C8F622BBFE05E92582C89F
:02055E00F22287
:10056000C2D5EC30E709B2D5E4C39DFDE49CFCEEB6
:1005700030E715B2D5E4C39FFFE49EFE12074FC3D8
:10058000E49DFDE49CFC800312074F30D507C3E4D3
:060590009FFFE49EFE2225
:10059600A3F8E0C5F025F0F0E58215827002158318
:0605A600E0C838F0E82275
:1005AC00BB0110E58229F582E5833AF583E0F5F08D
:1005BC00A3E0225009E92582F886F008E622BBFE6A
:1005CC000AE92582F8E2F5F008E222E5832AF583B0
:0805DC00E993F5F0A3E9932275
:1005E400BB010DC58229C582C5833AC5830207A410
:1005F4005011C58229F808E5F026F618F5F0E582D1
:1006040036F622BBFE11C58229F808E225F0F5F082
:10061400F218E23582F222F8E58229F582E5832A8E
:0D062400F58374019325F0F5F0E49338227E
:10063100F8BB0111E58229F582E5833AF583E8F0FB
:10064100E5F0A3F0225009E92582C8F608A6F022B8
:0D065100BBFE09E92582C8F2E5F008F2229F
:0E065E00C3E49FFFE49EFEE49DFDE49CFC22AD
:10066C00BB010DE58229F582E5833AF5830207C6C5
:10067C005007E92582F80207BABBFE07E92582F884
:10068C000207D2E58229F582E5833AF5830207DE7B
:10069C00BB010DE58229F582E5833AF5830206C09C
:1006AC005007E92582F80207EEBBFE07E92582F820
:0406BC000207FA2215
:0C06C000ECF0A3EDF0A3EEF0A3EFF022AD
:1006CC00A8828583F0D083D0821206E31206E3124F
:1006DC0006E31206E3E473E493A3C583C5F0C58374
:1006EC00C8C582C8F0A3C583C5F0C583C8C582C878
:0106FC0022DB
:0C06FD00A42582F582E5F03583F5832208
:10070900F8E0FBA3A3E0F925F0F0E5821582700279
:070719001583E0FA38F0221D
:09072000EBF0A3EAF0A3E9F022DA
:10072900D083D082F8E4937012740193700DA3A35F
:1007390093F8740193F5828883E473740293686073
:06074900EFA3A3A380DF73
:101F1800EFB40A07740D121F23740A309811A89998
:101F2800B8130CC2983098FDA899C298B811F63029
:071F380099FDC299F5992201
:101C140090011AEBF0A3EAF0A3E9F0E4900122F0BA
:101C2400A3F090012074FFF5F012059645F0603C96
:101C340090011DE0FBA3E0FAA3E0F91204E6FF9093
:101C4400011AE0FBA3E0FAA3E0F9900122E475F0A5
:101C54000112059685F082F583EF12053EEF60C20E
:101C640090011EE475F0011207A480B690011AE0F9
:081C7400FBA3E0FAA3E0F92252
:10074F00BC000BBE0029EF8DF084FFADF022E4CC8E
:10075F00F875F008EF2FFFEE33FEEC33FCEE9DEC57
:10076F00984005FCEE9DFE0FD5F0E9E4CEFD22ED9D
:10077F00F8F5F0EE8420D21CFEADF075F008EF2FE7
:10078F00FFED33FD4007985006D5F0F222C398FDD8
:05079F000FD5F0EA2275
:1007A400C5F0F8A3E028F0C5F0F8E58215827002E0
:0607B4001583E038F0227D
:0C07BA00E6FC08E6FD08E6FE08E6FF226B
:0C07C600E0FCA3E0FDA3E0FEA3E0FF22A6
:0C07D200E2FC08E2FD08E2FE08E2FF2263
:1007DE00E493FC740193FD740293FE740393FF2261
:0C07EE00ECF608EDF608EEF608EFF62237
:0C07FA00ECF208EDF208EEF208EFF2223B
:00000001FF
